{
  "contractName": "Forwarder",
  "abi": [
    {
      "inputs": [],
      "stateMutability": "nonpayable",
      "type": "constructor"
    },
    {
      "inputs": [],
      "name": "InvalidShortString",
      "type": "error"
    },
    {
      "inputs": [
        {
          "internalType": "string",
          "name": "str",
          "type": "string"
        }
      ],
      "name": "StringTooLong",
      "type": "error"
    },
    {
      "anonymous": false,
      "inputs": [],
      "name": "EIP712DomainChanged",
      "type": "event"
    },
    {
      "inputs": [],
      "name": "eip712Domain",
      "outputs": [
        {
          "internalType": "bytes1",
          "name": "fields",
          "type": "bytes1"
        },
        {
          "internalType": "string",
          "name": "name",
          "type": "string"
        },
        {
          "internalType": "string",
          "name": "version",
          "type": "string"
        },
        {
          "internalType": "uint256",
          "name": "chainId",
          "type": "uint256"
        },
        {
          "internalType": "address",
          "name": "verifyingContract",
          "type": "address"
        },
        {
          "internalType": "bytes32",
          "name": "salt",
          "type": "bytes32"
        },
        {
          "internalType": "uint256[]",
          "name": "extensions",
          "type": "uint256[]"
        }
      ],
      "stateMutability": "view",
      "type": "function"
    },
    {
      "inputs": [
        {
          "internalType": "address",
          "name": "from",
          "type": "address"
        }
      ],
      "name": "getNonce",
      "outputs": [
        {
          "internalType": "uint256",
          "name": "",
          "type": "uint256"
        }
      ],
      "stateMutability": "view",
      "type": "function"
    },
    {
      "inputs": [
        {
          "components": [
            {
              "internalType": "address",
              "name": "from",
              "type": "address"
            },
            {
              "internalType": "address",
              "name": "to",
              "type": "address"
            },
            {
              "internalType": "uint256",
              "name": "value",
              "type": "uint256"
            },
            {
              "internalType": "uint256",
              "name": "gas",
              "type": "uint256"
            },
            {
              "internalType": "uint256",
              "name": "nonce",
              "type": "uint256"
            },
            {
              "internalType": "bytes",
              "name": "data",
              "type": "bytes"
            }
          ],
          "internalType": "struct Forwarder.ForwardRequest",
          "name": "req",
          "type": "tuple"
        },
        {
          "internalType": "bytes",
          "name": "signature",
          "type": "bytes"
        }
      ],
      "name": "verify",
      "outputs": [
        {
          "internalType": "bool",
          "name": "",
          "type": "bool"
        }
      ],
      "stateMutability": "view",
      "type": "function"
    },
    {
      "inputs": [
        {
          "components": [
            {
              "internalType": "address",
              "name": "from",
              "type": "address"
            },
            {
              "internalType": "address",
              "name": "to",
              "type": "address"
            },
            {
              "internalType": "uint256",
              "name": "value",
              "type": "uint256"
            },
            {
              "internalType": "uint256",
              "name": "gas",
              "type": "uint256"
            },
            {
              "internalType": "uint256",
              "name": "nonce",
              "type": "uint256"
            },
            {
              "internalType": "bytes",
              "name": "data",
              "type": "bytes"
            }
          ],
          "internalType": "struct Forwarder.ForwardRequest",
          "name": "req",
          "type": "tuple"
        },
        {
          "internalType": "bytes",
          "name": "signature",
          "type": "bytes"
        }
      ],
      "name": "execute",
      "outputs": [
        {
          "internalType": "bool",
          "name": "",
          "type": "bool"
        },
        {
          "internalType": "bytes",
          "name": "",
          "type": "bytes"
        }
      ],
      "stateMutability": "payable",
      "type": "function"
    }
  ],
  "bytecode": "0x6101606040523480156200001257600080fd5b506040518060400160405280600f81526020017f47534e763220466f7277617264657200000000000000000000000000000000008152506040518060400160405280600581526020017f302e302e310000000000000000000000000000000000000000000000000000008152506200009a6000836200013f60201b620006741790919060201c565b6101208181525050620000bd6001826200013f60201b620006741790919060201c565b6101408181525050818051906020012060e08181525050808051906020012061010081815250504660a08181525050620000fc6200019c60201b60201c565b608081815250503073ffffffffffffffffffffffffffffffffffffffff1660c08173ffffffffffffffffffffffffffffffffffffffff16815250505050620007fe565b600060208351101562000165576200015d83620001f960201b60201c565b905062000196565b826200017c836200026660201b620006b81760201c565b60000190816200018d9190620004ea565b5060ff60001b90505b92915050565b60007f8b73c3c69bb8fe3d512ecc4cf759cc79239f7b179b0ffacaa9a75d522b39400f60e051610100514630604051602001620001de95949392919062000642565b60405160208183030381529060405280519060200120905090565b600080829050601f815111156200024957826040517f305a27a900000000000000000000000000000000000000000000000000000000815260040162000240919062000738565b60405180910390fd5b80518162000257906200078e565b60001c1760001b915050919050565b6000819050919050565b600081519050919050565b7f4e487b7100000000000000000000000000000000000000000000000000000000600052604160045260246000fd5b7f4e487b7100000000000000000000000000000000000000000000000000000000600052602260045260246000fd5b60006002820490506001821680620002f257607f821691505b602082108103620003085762000307620002aa565b5b50919050565b60008190508160005260206000209050919050565b60006020601f8301049050919050565b600082821b905092915050565b600060088302620003727fffffffffffffffffffffffffffffffffffffffffffffffffffffffffffffffff8262000333565b6200037e868362000333565b95508019841693508086168417925050509392505050565b6000819050919050565b6000819050919050565b6000620003cb620003c5620003bf8462000396565b620003a0565b62000396565b9050919050565b6000819050919050565b620003e783620003aa565b620003ff620003f682620003d2565b84845462000340565b825550505050565b600090565b6200041662000407565b62000423818484620003dc565b505050565b5b818110156200044b576200043f6000826200040c565b60018101905062000429565b5050565b601f8211156200049a5762000464816200030e565b6200046f8462000323565b810160208510156200047f578190505b620004976200048e8562000323565b83018262000428565b50505b505050565b600082821c905092915050565b6000620004bf600019846008026200049f565b1980831691505092915050565b6000620004da8383620004ac565b9150826002028217905092915050565b620004f58262000270565b67ffffffffffffffff8111156200051157620005106200027b565b5b6200051d8254620002d9565b6200052a8282856200044f565b600060209050601f8311600181146200056257600084156200054d578287015190505b620005598582620004cc565b865550620005c9565b601f19841662000572866200030e565b60005b828110156200059c5784890151825560018201915060208501945060208101905062000575565b86831015620005bc5784890151620005b8601f891682620004ac565b8355505b6001600288020188555050505b505050505050565b6000819050919050565b620005e681620005d1565b82525050565b620005f78162000396565b82525050565b600073ffffffffffffffffffffffffffffffffffffffff82169050919050565b60006200062a82620005fd565b9050919050565b6200063c816200061d565b82525050565b600060a082019050620006596000830188620005db565b620006686020830187620005db565b620006776040830186620005db565b620006866060830185620005ec565b62000695608083018462000631565b9695505050505050565b600082825260208201905092915050565b60005b83811015620006d0578082015181840152602081019050620006b3565b83811115620006e0576000848401525b50505050565b6000601f19601f8301169050919050565b6000620007048262000270565b6200071081856200069f565b935062000722818560208601620006b0565b6200072d81620006e6565b840191505092915050565b60006020820190508181036000830152620007548184620006f7565b905092915050565b600081519050919050565b6000819050602082019050919050565b6000620007858251620005d1565b80915050919050565b60006200079b826200075c565b82620007a78462000767565b9050620007b48162000777565b92506020821015620007f757620007f27fffffffffffffffffffffffffffffffffffffffffffffffffffffffffffffffff8360200360080262000333565b831692505b5050919050565b60805160a05160c05160e051610100516101205161014051611d55620008596000396000610403015260006103cf01526000610bd401526000610bb301526000610893015260006108e9015260006109120152611d556000f3fe60806040526004361061003f5760003560e01c80632d0335ab1461004457806347153f821461008157806384b0196e146100b2578063bf5d3bdb146100e3575b600080fd5b34801561005057600080fd5b5061006b60048036038101906100669190610d78565b610120565b6040516100789190610dbe565b60405180910390f35b61009b60048036038101906100969190610e62565b610169565b6040516100a9929190610f92565b60405180910390f35b3480156100be57600080fd5b506100c76103bc565b6040516100da9796959493929190611138565b60405180910390f35b3480156100ef57600080fd5b5061010a60048036038101906101059190610e62565b6104be565b60405161011791906111bc565b60405180910390f35b6000600260008373ffffffffffffffffffffffffffffffffffffffff1673ffffffffffffffffffffffffffffffffffffffff168152602001908152602001600020549050919050565b600060606101788585856104be565b6101b7576040517f08c379a00000000000000000000000000000000000000000000000000000000081526004016101ae90611249565b60405180910390fd5b600185608001356101c89190611298565b600260008760000160208101906101df9190610d78565b73ffffffffffffffffffffffffffffffffffffffff1673ffffffffffffffffffffffffffffffffffffffff168152602001908152602001600020819055506000808660200160208101906102339190610d78565b73ffffffffffffffffffffffffffffffffffffffff1687606001358860400135898060a0019061026391906112fd565b8b60000160208101906102769190610d78565b604051602001610288939291906113e7565b6040516020818303038152906040526040516102a49190611442565b600060405180830381858888f193505050503d80600081146102e2576040519150601f19603f3d011682016040523d82523d6000602084013e6102e7565b606091505b50915091508161038c57604481511015610336576040517f08c379a000000000000000000000000000000000000000000000000000000000815260040161032d906114a5565b60405180910390fd5b6004810190508080602001905181019061035091906115e6565b6040517f08c379a0000000000000000000000000000000000000000000000000000000008152600401610383919061162f565b60405180910390fd5b603f876060013561039d9190611680565b5a116103ac576103ab6116b1565b5b8181935093505050935093915050565b6000606080600080600060606103fc60007f00000000000000000000000000000000000000000000000000000000000000006106c290919063ffffffff16565b61043060017f00000000000000000000000000000000000000000000000000000000000000006106c290919063ffffffff16565b46306000801b600067ffffffffffffffff811115610451576104506114ca565b5b60405190808252806020026020018201604052801561047f5781602001602082028036833780820191505090505b507f0f00000000000000000000000000000000000000000000000000000000000000959493929190965096509650965096509650965090919293949596565b6000806105c784848080601f016020809104026020016040519081016040528093929190818152602001838380828437600081840152601f19601f820116905080830192505050505050506105b97fdd8f4b70b0f4393e889bd39128a30628a78b61816a9eb8199759e7a349657e488860000160208101906105409190610d78565b8960200160208101906105539190610d78565b8a604001358b606001358c608001358d8060a0019061057291906112fd565b6040516105809291906116e0565b604051809103902060405160200161059e97969594939291906116f9565b60405160208183030381529060405280519060200120610772565b61078c90919063ffffffff16565b90508460800135600260008760000160208101906105e59190610d78565b73ffffffffffffffffffffffffffffffffffffffff1673ffffffffffffffffffffffffffffffffffffffff1681526020019081526020016000205414801561066a575084600001602081019061063b9190610d78565b73ffffffffffffffffffffffffffffffffffffffff168173ffffffffffffffffffffffffffffffffffffffff16145b9150509392505050565b600060208351101561069057610689836107b3565b90506106b2565b8261069a836106b8565b60000190816106a99190611974565b5060ff60001b90505b92915050565b6000819050919050565b606060ff60001b83146106df576106d88361081b565b905061076c565b8180546106eb90611797565b80601f016020809104026020016040519081016040528092919081815260200182805461071790611797565b80156107645780601f1061073957610100808354040283529160200191610764565b820191906000526020600020905b81548152906001019060200180831161074757829003601f168201915b505050505090505b92915050565b600061078561077f61088f565b83610946565b9050919050565b600080600061079b8585610987565b915091506107a8816109d8565b819250505092915050565b600080829050601f8151111561080057826040517f305a27a90000000000000000000000000000000000000000000000000000000081526004016107f7919061162f565b60405180910390fd5b80518161080c90611a6b565b60001c1760001b915050919050565b6060600061082883610b3e565b90506000602067ffffffffffffffff811115610847576108466114ca565b5b6040519080825280601f01601f1916602001820160405280156108795781602001600182028036833780820191505090505b5090508181528360208201528092505050919050565b60007f000000000000000000000000000000000000000000000000000000000000000073ffffffffffffffffffffffffffffffffffffffff163073ffffffffffffffffffffffffffffffffffffffff1614801561090b57507f000000000000000000000000000000000000000000000000000000000000000046145b15610938577f00000000000000000000000000000000000000000000000000000000000000009050610943565b610940610b8e565b90505b90565b60006040517f190100000000000000000000000000000000000000000000000000000000000081528360028201528260228201526042812091505092915050565b60008060418351036109c85760008060006020860151925060408601519150606086015160001a90506109bc87828585610c24565b945094505050506109d1565b60006002915091505b9250929050565b600060048111156109ec576109eb611ad2565b5b8160048111156109ff576109fe611ad2565b5b0315610b3b5760016004811115610a1957610a18611ad2565b5b816004811115610a2c57610a2b611ad2565b5b03610a6c576040517f08c379a0000000000000000000000000000000000000000000000000000000008152600401610a6390611b4d565b60405180910390fd5b60026004811115610a8057610a7f611ad2565b5b816004811115610a9357610a92611ad2565b5b03610ad3576040517f08c379a0000000000000000000000000000000000000000000000000000000008152600401610aca90611bb9565b60405180910390fd5b60036004811115610ae757610ae6611ad2565b5b816004811115610afa57610af9611ad2565b5b03610b3a576040517f08c379a0000000000000000000000000000000000000000000000000000000008152600401610b3190611c4b565b60405180910390fd5b5b50565b60008060ff8360001c169050601f811115610b85576040517fb3512b0c00000000000000000000000000000000000000000000000000000000815260040160405180910390fd5b80915050919050565b60007f8b73c3c69bb8fe3d512ecc4cf759cc79239f7b179b0ffacaa9a75d522b39400f7f00000000000000000000000000000000000000000000000000000000000000007f00000000000000000000000000000000000000000000000000000000000000004630604051602001610c09959493929190611c6b565b60405160208183030381529060405280519060200120905090565b6000807f7fffffffffffffffffffffffffffffff5d576e7357a4501ddfe92f46681b20a08360001c1115610c5f576000600391509150610cfd565b600060018787878760405160008152602001604052604051610c849493929190611cda565b6020604051602081039080840390855afa158015610ca6573d6000803e3d6000fd5b505050602060405103519050600073ffffffffffffffffffffffffffffffffffffffff168173ffffffffffffffffffffffffffffffffffffffff1603610cf457600060019250925050610cfd565b80600092509250505b94509492505050565b6000604051905090565b600080fd5b600080fd5b600073ffffffffffffffffffffffffffffffffffffffff82169050919050565b6000610d4582610d1a565b9050919050565b610d5581610d3a565b8114610d6057600080fd5b50565b600081359050610d7281610d4c565b92915050565b600060208284031215610d8e57610d8d610d10565b5b6000610d9c84828501610d63565b91505092915050565b6000819050919050565b610db881610da5565b82525050565b6000602082019050610dd36000830184610daf565b92915050565b600080fd5b600060c08284031215610df457610df3610dd9565b5b81905092915050565b600080fd5b600080fd5b600080fd5b60008083601f840112610e2257610e21610dfd565b5b8235905067ffffffffffffffff811115610e3f57610e3e610e02565b5b602083019150836001820283011115610e5b57610e5a610e07565b5b9250929050565b600080600060408486031215610e7b57610e7a610d10565b5b600084013567ffffffffffffffff811115610e9957610e98610d15565b5b610ea586828701610dde565b935050602084013567ffffffffffffffff811115610ec657610ec5610d15565b5b610ed286828701610e0c565b92509250509250925092565b60008115159050919050565b610ef381610ede565b82525050565b600081519050919050565b600082825260208201905092915050565b60005b83811015610f33578082015181840152602081019050610f18565b83811115610f42576000848401525b50505050565b6000601f19601f8301169050919050565b6000610f6482610ef9565b610f6e8185610f04565b9350610f7e818560208601610f15565b610f8781610f48565b840191505092915050565b6000604082019050610fa76000830185610eea565b8181036020830152610fb98184610f59565b90509392505050565b60007fff0000000000000000000000000000000000000000000000000000000000000082169050919050565b610ff781610fc2565b82525050565b600081519050919050565b600082825260208201905092915050565b600061102482610ffd565b61102e8185611008565b935061103e818560208601610f15565b61104781610f48565b840191505092915050565b61105b81610d3a565b82525050565b6000819050919050565b61107481611061565b82525050565b600081519050919050565b600082825260208201905092915050565b6000819050602082019050919050565b6110af81610da5565b82525050565b60006110c183836110a6565b60208301905092915050565b6000602082019050919050565b60006110e58261107a565b6110ef8185611085565b93506110fa83611096565b8060005b8381101561112b57815161111288826110b5565b975061111d836110cd565b9250506001810190506110fe565b5085935050505092915050565b600060e08201905061114d600083018a610fee565b818103602083015261115f8189611019565b905081810360408301526111738188611019565b90506111826060830187610daf565b61118f6080830186611052565b61119c60a083018561106b565b81810360c08301526111ae81846110da565b905098975050505050505050565b60006020820190506111d16000830184610eea565b92915050565b7f4d696e696d616c466f727761726465723a207369676e617475726520646f657360008201527f206e6f74206d6174636820726571756573740000000000000000000000000000602082015250565b6000611233603283611008565b915061123e826111d7565b604082019050919050565b6000602082019050818103600083015261126281611226565b9050919050565b7f4e487b7100000000000000000000000000000000000000000000000000000000600052601160045260246000fd5b60006112a382610da5565b91506112ae83610da5565b9250827fffffffffffffffffffffffffffffffffffffffffffffffffffffffffffffffff038211156112e3576112e2611269565b5b828201905092915050565b600080fd5b600080fd5b600080fd5b6000808335600160200384360303811261131a576113196112ee565b5b80840192508235915067ffffffffffffffff82111561133c5761133b6112f3565b5b602083019250600182023603831315611358576113576112f8565b5b509250929050565b600081905092915050565b82818337600083830152505050565b60006113868385611360565b935061139383858461136b565b82840190509392505050565b60008160601b9050919050565b60006113b78261139f565b9050919050565b60006113c9826113ac565b9050919050565b6113e16113dc82610d3a565b6113be565b82525050565b60006113f482858761137a565b915061140082846113d0565b601482019150819050949350505050565b600061141c82610ef9565b6114268185611360565b9350611436818560208601610f15565b80840191505092915050565b600061144e8284611411565b915081905092915050565b7f5472616e73616374696f6e2072657665727465642073696c656e746c79000000600082015250565b600061148f601d83611008565b915061149a82611459565b602082019050919050565b600060208201905081810360008301526114be81611482565b9050919050565b600080fd5b7f4e487b7100000000000000000000000000000000000000000000000000000000600052604160045260246000fd5b61150282610f48565b810181811067ffffffffffffffff82111715611521576115206114ca565b5b80604052505050565b6000611534610d06565b905061154082826114f9565b919050565b600067ffffffffffffffff8211156115605761155f6114ca565b5b61156982610f48565b9050602081019050919050565b600061158961158484611545565b61152a565b9050828152602081018484840111156115a5576115a46114c5565b5b6115b0848285610f15565b509392505050565b600082601f8301126115cd576115cc610dfd565b5b81516115dd848260208601611576565b91505092915050565b6000602082840312156115fc576115fb610d10565b5b600082015167ffffffffffffffff81111561161a57611619610d15565b5b611626848285016115b8565b91505092915050565b600060208201905081810360008301526116498184611019565b905092915050565b7f4e487b7100000000000000000000000000000000000000000000000000000000600052601260045260246000fd5b600061168b82610da5565b915061169683610da5565b9250826116a6576116a5611651565b5b828204905092915050565b7f4e487b7100000000000000000000000000000000000000000000000000000000600052600160045260246000fd5b60006116ed82848661137a565b91508190509392505050565b600060e08201905061170e600083018a61106b565b61171b6020830189611052565b6117286040830188611052565b6117356060830187610daf565b6117426080830186610daf565b61174f60a0830185610daf565b61175c60c083018461106b565b98975050505050505050565b7f4e487b7100000000000000000000000000000000000000000000000000000000600052602260045260246000fd5b600060028204905060018216806117af57607f821691505b6020821081036117c2576117c1611768565b5b50919050565b60008190508160005260206000209050919050565b60006020601f8301049050919050565b600082821b905092915050565b60006008830261182a7fffffffffffffffffffffffffffffffffffffffffffffffffffffffffffffffff826117ed565b61183486836117ed565b95508019841693508086168417925050509392505050565b6000819050919050565b600061187161186c61186784610da5565b61184c565b610da5565b9050919050565b6000819050919050565b61188b83611856565b61189f61189782611878565b8484546117fa565b825550505050565b600090565b6118b46118a7565b6118bf818484611882565b505050565b5b818110156118e3576118d86000826118ac565b6001810190506118c5565b5050565b601f821115611928576118f9816117c8565b611902846117dd565b81016020851015611911578190505b61192561191d856117dd565b8301826118c4565b50505b505050565b600082821c905092915050565b600061194b6000198460080261192d565b1980831691505092915050565b6000611964838361193a565b9150826002028217905092915050565b61197d82610ffd565b67ffffffffffffffff811115611996576119956114ca565b5b6119a08254611797565b6119ab8282856118e7565b600060209050601f8311600181146119de57600084156119cc578287015190505b6119d68582611958565b865550611a3e565b601f1984166119ec866117c8565b60005b82811015611a14578489015182556001820191506020850194506020810190506119ef565b86831015611a315784890151611a2d601f89168261193a565b8355505b6001600288020188555050505b505050505050565b6000819050602082019050919050565b6000611a628251611061565b80915050919050565b6000611a7682610ef9565b82611a8084611a46565b9050611a8b81611a56565b92506020821015611acb57611ac67fffffffffffffffffffffffffffffffffffffffffffffffffffffffffffffffff836020036008026117ed565b831692505b5050919050565b7f4e487b7100000000000000000000000000000000000000000000000000000000600052602160045260246000fd5b7f45434453413a20696e76616c6964207369676e61747572650000000000000000600082015250565b6000611b37601883611008565b9150611b4282611b01565b602082019050919050565b60006020820190508181036000830152611b6681611b2a565b9050919050565b7f45434453413a20696e76616c6964207369676e6174757265206c656e67746800600082015250565b6000611ba3601f83611008565b9150611bae82611b6d565b602082019050919050565b60006020820190508181036000830152611bd281611b96565b9050919050565b7f45434453413a20696e76616c6964207369676e6174757265202773272076616c60008201527f7565000000000000000000000000000000000000000000000000000000000000602082015250565b6000611c35602283611008565b9150611c4082611bd9565b604082019050919050565b60006020820190508181036000830152611c6481611c28565b9050919050565b600060a082019050611c80600083018861106b565b611c8d602083018761106b565b611c9a604083018661106b565b611ca76060830185610daf565b611cb46080830184611052565b9695505050505050565b600060ff82169050919050565b611cd481611cbe565b82525050565b6000608082019050611cef600083018761106b565b611cfc6020830186611ccb565b611d09604083018561106b565b611d16606083018461106b565b9594505050505056fea2646970667358221220a1b4b7d9a6718f822b842a95078da9eb4565d3149efc2b614842f55c0fe05bad64736f6c634300080f0033",
  "immutableReferences": {
    "1063": [
      {
        "length": 32,
        "start": 2322
      }
    ],
    "1065": [
      {
        "length": 32,
        "start": 2281
      }
    ],
    "1067": [
      {
        "length": 32,
        "start": 2195
      }
    ],
    "1069": [
      {
        "length": 32,
        "start": 2995
      }
    ],
    "1071": [
      {
        "length": 32,
        "start": 3028
      }
    ],
    "1074": [
      {
        "length": 32,
        "start": 975
      }
    ],
    "1077": [
      {
        "length": 32,
        "start": 1027
      }
    ]
  },
  "source": "// SPDX-License-Identifier: Apache 2.0\npragma solidity ^0.8.0;\n\n/// @author thirdweb\n\n//   $$\\     $$\\       $$\\                 $$\\                         $$\\\n//   $$ |    $$ |      \\__|                $$ |                        $$ |\n// $$$$$$\\   $$$$$$$\\  $$\\  $$$$$$\\   $$$$$$$ |$$\\  $$\\  $$\\  $$$$$$\\  $$$$$$$\\\n// \\_$$  _|  $$  __$$\\ $$ |$$  __$$\\ $$  __$$ |$$ | $$ | $$ |$$  __$$\\ $$  __$$\\\n//   $$ |    $$ |  $$ |$$ |$$ |  \\__|$$ /  $$ |$$ | $$ | $$ |$$$$$$$$ |$$ |  $$ |\n//   $$ |$$\\ $$ |  $$ |$$ |$$ |      $$ |  $$ |$$ | $$ | $$ |$$   ____|$$ |  $$ |\n//   \\$$$$  |$$ |  $$ |$$ |$$ |      \\$$$$$$$ |\\$$$$$\\$$$$  |\\$$$$$$$\\ $$$$$$$  |\n//    \\____/ \\__|  \\__|\\__|\\__|       \\_______| \\_____\\____/  \\_______|\\_______/\n\nimport \"@openzeppelin/contracts/utils/cryptography/ECDSA.sol\";\nimport \"@openzeppelin/contracts/utils/cryptography/draft-EIP712.sol\";\n\n/*\n * @dev Minimal forwarder for GSNv2\n */\ncontract Forwarder is EIP712 {\n    using ECDSA for bytes32;\n\n    struct ForwardRequest {\n        address from;\n        address to;\n        uint256 value;\n        uint256 gas;\n        uint256 nonce;\n        bytes data;\n    }\n\n    bytes32 private constant TYPEHASH =\n        keccak256(\"ForwardRequest(address from,address to,uint256 value,uint256 gas,uint256 nonce,bytes data)\");\n\n    mapping(address => uint256) private _nonces;\n\n    constructor() EIP712(\"GSNv2 Forwarder\", \"0.0.1\") {}\n\n    function getNonce(address from) public view returns (uint256) {\n        return _nonces[from];\n    }\n\n    function verify(ForwardRequest calldata req, bytes calldata signature) public view returns (bool) {\n        address signer = _hashTypedDataV4(\n            keccak256(abi.encode(TYPEHASH, req.from, req.to, req.value, req.gas, req.nonce, keccak256(req.data)))\n        ).recover(signature);\n\n        return _nonces[req.from] == req.nonce && signer == req.from;\n    }\n\n    function execute(ForwardRequest calldata req, bytes calldata signature)\n        public\n        payable\n        returns (bool, bytes memory)\n    {\n        require(verify(req, signature), \"MinimalForwarder: signature does not match request\");\n        _nonces[req.from] = req.nonce + 1;\n\n        // solhint-disable-next-line avoid-low-level-calls\n        (bool success, bytes memory result) = req.to.call{ gas: req.gas, value: req.value }(\n            abi.encodePacked(req.data, req.from)\n        );\n\n        if (!success) {\n            // Next 5 lines from https://ethereum.stackexchange.com/a/83577\n            if (result.length < 68) revert(\"Transaction reverted silently\");\n            assembly {\n                result := add(result, 0x04)\n            }\n            revert(abi.decode(result, (string)));\n        }\n        // Check gas: https://ronan.eth.link/blog/ethereum-gas-dangers/\n        assert(gasleft() > req.gas / 63);\n        return (success, result);\n    }\n}\n",
  "sourcePath": "@thirdweb-dev/contracts/forwarder/Forwarder.sol",
  "compiler": {
    "name": "solc",
    "version": "0.8.15+commit.e14f2714.Emscripten.clang"
  },
  "schemaVersion": "3.4.13",
  "updatedAt": "2023-06-02T06:41:53.163Z",
  "devdoc": {
    "kind": "dev",
    "methods": {
      "eip712Domain()": {
        "details": "See {EIP-5267}. _Available since v4.9._"
      }
    },
    "version": 1
  },
  "userdoc": {
    "kind": "user",
    "methods": {},
    "version": 1
  }
}