{
  "contractName": "Participation",
  "abi": [
    {
      "inputs": [
        {
          "internalType": "address",
          "name": "_unlockAddress",
          "type": "address"
        }
      ],
      "stateMutability": "nonpayable",
      "type": "constructor"
    },
    {
      "anonymous": false,
      "inputs": [
        {
          "indexed": false,
          "internalType": "address",
          "name": "lockAddress",
          "type": "address"
        }
      ],
      "name": "LockCreated",
      "type": "event"
    },
    {
      "inputs": [
        {
          "internalType": "address",
          "name": "user",
          "type": "address"
        },
        {
          "internalType": "bytes",
          "name": "data",
          "type": "bytes"
        }
      ],
      "name": "deployLockWithNonTransferableKeys",
      "outputs": [
        {
          "internalType": "address",
          "name": "",
          "type": "address"
        }
      ],
      "stateMutability": "nonpayable",
      "type": "function"
    }
  ],
  "bytecode": "0x608060405234801561001057600080fd5b506040516106f83803806106f8833981810160405281019061003291906100db565b806000806101000a81548173ffffffffffffffffffffffffffffffffffffffff021916908373ffffffffffffffffffffffffffffffffffffffff16021790555050610108565b600080fd5b600073ffffffffffffffffffffffffffffffffffffffff82169050919050565b60006100a88261007d565b9050919050565b6100b88161009d565b81146100c357600080fd5b50565b6000815190506100d5816100af565b92915050565b6000602082840312156100f1576100f0610078565b5b60006100ff848285016100c6565b91505092915050565b6105e1806101176000396000f3fe608060405234801561001057600080fd5b506004361061002b5760003560e01c8063d8a845d714610030575b600080fd5b61004a60048036038101906100459190610353565b610060565b60405161005791906103c2565b60405180910390f35b60008060008054906101000a900473ffffffffffffffffffffffffffffffffffffffff16905060008173ffffffffffffffffffffffffffffffffffffffff1663487a8a768686600c6040518463ffffffff1660e01b81526004016100c69392919061048e565b6020604051808303816000875af11580156100e5573d6000803e3d6000fd5b505050506040513d601f19601f8201168201806040525081019061010991906104d5565b90508073ffffffffffffffffffffffffffffffffffffffff166339f4698660006127106040518363ffffffff1660e01b8152600401610149929190610582565b600060405180830381600087803b15801561016357600080fd5b505af1158015610177573d6000803e3d6000fd5b505050508073ffffffffffffffffffffffffffffffffffffffff1663d2503485876040518263ffffffff1660e01b81526004016101b491906103c2565b600060405180830381600087803b1580156101ce57600080fd5b505af11580156101e2573d6000803e3d6000fd5b505050508073ffffffffffffffffffffffffffffffffffffffff1663f0ba60406040518163ffffffff1660e01b8152600401600060405180830381600087803b15801561022e57600080fd5b505af1158015610242573d6000803e3d6000fd5b505050507f304ee58be8e47b41a850341d4d4a0ac2ed7106277bf568d512886399d82786158160405161027591906103c2565b60405180910390a150509392505050565b600080fd5b600080fd5b600073ffffffffffffffffffffffffffffffffffffffff82169050919050565b60006102bb82610290565b9050919050565b6102cb816102b0565b81146102d657600080fd5b50565b6000813590506102e8816102c2565b92915050565b600080fd5b600080fd5b600080fd5b60008083601f840112610313576103126102ee565b5b8235905067ffffffffffffffff8111156103305761032f6102f3565b5b60208301915083600182028301111561034c5761034b6102f8565b5b9250929050565b60008060006040848603121561036c5761036b610286565b5b600061037a868287016102d9565b935050602084013567ffffffffffffffff81111561039b5761039a61028b565b5b6103a7868287016102fd565b92509250509250925092565b6103bc816102b0565b82525050565b60006020820190506103d760008301846103b3565b92915050565b600082825260208201905092915050565b82818337600083830152505050565b6000601f19601f8301169050919050565b600061041a83856103dd565b93506104278385846103ee565b610430836103fd565b840190509392505050565b6000819050919050565b600061ffff82169050919050565b6000819050919050565b600061047861047361046e8461043b565b610453565b610445565b9050919050565b6104888161045d565b82525050565b600060408201905081810360008301526104a981858761040e565b90506104b8602083018461047f565b949350505050565b6000815190506104cf816102c2565b92915050565b6000602082840312156104eb576104ea610286565b5b60006104f9848285016104c0565b91505092915050565b6000819050919050565b6000819050919050565b600061053161052c61052784610502565b610453565b61050c565b9050919050565b61054181610516565b82525050565b6000819050919050565b600061056c61056761056284610547565b610453565b61050c565b9050919050565b61057c81610551565b82525050565b60006040820190506105976000830185610538565b6105a46020830184610573565b939250505056fea26469706673582212200dff50a4535f059b5d87182aa16ba50dbe5b5622cdc97d007a72bade74a2e3be64736f6c634300080f0033",
  "immutableReferences": {},
  "source": "// SPDX-License-Identifier: MIT\npragma solidity >=0.4.21 <0.9.0;\n\nimport \"@unlock-protocol/contracts/dist/Unlock/IUnlockV12.sol\";\nimport \"@unlock-protocol/contracts/dist/PublicLock/IPublicLockV12.sol\";\n\ncontract Participation {\n  address unlockAddress;\n\n  event LockCreated(\n      address lockAddress\n  );\n\n  constructor(address _unlockAddress) {\n    unlockAddress = _unlockAddress;\n  }\n\n  function deployLockWithNonTransferableKeys(address user, bytes calldata data) external returns (address) {\n    IUnlockV12 unlock = IUnlockV12(unlockAddress);\n\n    address newLockAddress = unlock.createUpgradeableLockAtVersion(data, 12);\n    IPublicLockV12(newLockAddress).updateRefundPenalty(0, 10000);\n    IPublicLockV12(newLockAddress).addLockManager(user);\n    IPublicLockV12(newLockAddress).renounceLockManager();\n\n    emit LockCreated(newLockAddress);\n  }\n}\n",
  "sourcePath": "/Users/stephan.gerbeth/dev/paralogs/packages/truffle/contracts/Participation.sol",
  "compiler": {
    "name": "solc",
    "version": "0.8.15+commit.e14f2714.Emscripten.clang"
  },
  "schemaVersion": "3.4.13",
  "updatedAt": "2023-05-29T09:16:55.061Z",
  "devdoc": {
    "kind": "dev",
    "methods": {},
    "version": 1
  },
  "userdoc": {
    "kind": "user",
    "methods": {},
    "version": 1
  }
}