{
  "contractName": "Participation",
  "abi": [
    {
      "inputs": [
        {
          "internalType": "address",
          "name": "_unlockAddress",
          "type": "address"
        },
        {
          "internalType": "contract Forwarder",
          "name": "forwarder",
          "type": "address"
        }
      ],
      "stateMutability": "nonpayable",
      "type": "constructor"
    },
    {
      "anonymous": false,
      "inputs": [
        {
          "indexed": false,
          "internalType": "address",
          "name": "lockAddress",
          "type": "address"
        }
      ],
      "name": "LockCreated",
      "type": "event"
    },
    {
      "inputs": [
        {
          "internalType": "address",
          "name": "forwarder",
          "type": "address"
        }
      ],
      "name": "isTrustedForwarder",
      "outputs": [
        {
          "internalType": "bool",
          "name": "",
          "type": "bool"
        }
      ],
      "stateMutability": "view",
      "type": "function"
    },
    {
      "inputs": [
        {
          "internalType": "address",
          "name": "user",
          "type": "address"
        },
        {
          "internalType": "bytes",
          "name": "data",
          "type": "bytes"
        }
      ],
      "name": "deployLockWithNonTransferableKeys",
      "outputs": [
        {
          "internalType": "address",
          "name": "",
          "type": "address"
        }
      ],
      "stateMutability": "nonpayable",
      "type": "function"
    }
  ],
  "bytecode": "0x60a060405234801561001057600080fd5b5060405161088138038061088183398181016040528101906100329190610150565b808073ffffffffffffffffffffffffffffffffffffffff1660808173ffffffffffffffffffffffffffffffffffffffff168152505050816000806101000a81548173ffffffffffffffffffffffffffffffffffffffff021916908373ffffffffffffffffffffffffffffffffffffffff1602179055505050610190565b600080fd5b600073ffffffffffffffffffffffffffffffffffffffff82169050919050565b60006100df826100b4565b9050919050565b6100ef816100d4565b81146100fa57600080fd5b50565b60008151905061010c816100e6565b92915050565b600061011d826100d4565b9050919050565b61012d81610112565b811461013857600080fd5b50565b60008151905061014a81610124565b92915050565b60008060408385031215610167576101666100af565b5b6000610175858286016100fd565b92505060206101868582860161013b565b9150509250929050565b6080516106d76101aa6000396000609f01526106d76000f3fe608060405234801561001057600080fd5b50600436106100365760003560e01c8063572b6c051461003b578063d8a845d71461006b575b600080fd5b61005560048036038101906100509190610381565b61009b565b60405161006291906103c9565b60405180910390f35b61008560048036038101906100809190610449565b6100f3565b60405161009291906104b8565b60405180910390f35b60007f000000000000000000000000000000000000000000000000000000000000000073ffffffffffffffffffffffffffffffffffffffff168273ffffffffffffffffffffffffffffffffffffffff16149050919050565b60008060008054906101000a900473ffffffffffffffffffffffffffffffffffffffff16905060008173ffffffffffffffffffffffffffffffffffffffff1663487a8a768686600c6040518463ffffffff1660e01b815260040161015993929190610584565b6020604051808303816000875af1158015610178573d6000803e3d6000fd5b505050506040513d601f19601f8201168201806040525081019061019c91906105cb565b90508073ffffffffffffffffffffffffffffffffffffffff166339f4698660006127106040518363ffffffff1660e01b81526004016101dc929190610678565b600060405180830381600087803b1580156101f657600080fd5b505af115801561020a573d6000803e3d6000fd5b505050508073ffffffffffffffffffffffffffffffffffffffff1663d2503485876040518263ffffffff1660e01b815260040161024791906104b8565b600060405180830381600087803b15801561026157600080fd5b505af1158015610275573d6000803e3d6000fd5b505050508073ffffffffffffffffffffffffffffffffffffffff1663f0ba60406040518163ffffffff1660e01b8152600401600060405180830381600087803b1580156102c157600080fd5b505af11580156102d5573d6000803e3d6000fd5b505050507f304ee58be8e47b41a850341d4d4a0ac2ed7106277bf568d512886399d82786158160405161030891906104b8565b60405180910390a150509392505050565b600080fd5b600080fd5b600073ffffffffffffffffffffffffffffffffffffffff82169050919050565b600061034e82610323565b9050919050565b61035e81610343565b811461036957600080fd5b50565b60008135905061037b81610355565b92915050565b60006020828403121561039757610396610319565b5b60006103a58482850161036c565b91505092915050565b60008115159050919050565b6103c3816103ae565b82525050565b60006020820190506103de60008301846103ba565b92915050565b600080fd5b600080fd5b600080fd5b60008083601f840112610409576104086103e4565b5b8235905067ffffffffffffffff811115610426576104256103e9565b5b602083019150836001820283011115610442576104416103ee565b5b9250929050565b60008060006040848603121561046257610461610319565b5b60006104708682870161036c565b935050602084013567ffffffffffffffff8111156104915761049061031e565b5b61049d868287016103f3565b92509250509250925092565b6104b281610343565b82525050565b60006020820190506104cd60008301846104a9565b92915050565b600082825260208201905092915050565b82818337600083830152505050565b6000601f19601f8301169050919050565b600061051083856104d3565b935061051d8385846104e4565b610526836104f3565b840190509392505050565b6000819050919050565b600061ffff82169050919050565b6000819050919050565b600061056e61056961056484610531565b610549565b61053b565b9050919050565b61057e81610553565b82525050565b6000604082019050818103600083015261059f818587610504565b90506105ae6020830184610575565b949350505050565b6000815190506105c581610355565b92915050565b6000602082840312156105e1576105e0610319565b5b60006105ef848285016105b6565b91505092915050565b6000819050919050565b6000819050919050565b600061062761062261061d846105f8565b610549565b610602565b9050919050565b6106378161060c565b82525050565b6000819050919050565b600061066261065d6106588461063d565b610549565b610602565b9050919050565b61067281610647565b82525050565b600060408201905061068d600083018561062e565b61069a6020830184610669565b939250505056fea26469706673582212208a26500e28761f4874a1e41eacc7e23a05a6c139c39f7d2b010428a6357405f364736f6c634300080f0033",
  "immutableReferences": {
    "33": [
      {
        "length": 32,
        "start": 159
      }
    ]
  },
  "source": "// SPDX-License-Identifier: MIT\npragma solidity >=0.4.21 <0.9.0;\n\nimport \"@unlock-protocol/contracts/dist/Unlock/IUnlockV12.sol\";\nimport \"@unlock-protocol/contracts/dist/PublicLock/IPublicLockV12.sol\";\nimport \"@openzeppelin/contracts/metatx/ERC2771Context.sol\";\nimport \"@thirdweb-dev/contracts/forwarder/Forwarder.sol\";\n\ncontract Participation is ERC2771Context {\n  address unlockAddress;\n\n  event LockCreated(\n      address lockAddress\n  );\n\n  constructor(address _unlockAddress, Forwarder forwarder) ERC2771Context(address(forwarder)) {\n    unlockAddress = _unlockAddress;\n  }\n\n  function deployLockWithNonTransferableKeys(address user, bytes calldata data) external returns (address) {\n    IUnlockV12 unlock = IUnlockV12(unlockAddress);\n\n    address newLockAddress = unlock.createUpgradeableLockAtVersion(data, 12);\n    IPublicLockV12(newLockAddress).updateRefundPenalty(0, 10000);\n    IPublicLockV12(newLockAddress).addLockManager(user);\n    IPublicLockV12(newLockAddress).renounceLockManager();\n\n    emit LockCreated(newLockAddress);\n  }\n}\n",
  "sourcePath": "/Users/stephan.gerbeth/dev/paralogs/packages/truffle/contracts/Participation.sol",
  "compiler": {
    "name": "solc",
    "version": "0.8.15+commit.e14f2714.Emscripten.clang"
  },
  "schemaVersion": "3.4.13",
  "updatedAt": "2023-06-02T06:41:53.178Z",
  "devdoc": {
    "kind": "dev",
    "methods": {},
    "version": 1
  },
  "userdoc": {
    "kind": "user",
    "methods": {},
    "version": 1
  }
}